{
    "contractName": "SimpleBank",
    "abi": [
        {
            "anonymous": false,
            "inputs": [
                {
                    "indexed": false,
                    "internalType": "address",
                    "name": "accountAddress",
                    "type": "address"
                },
                {
                    "indexed": false,
                    "internalType": "uint256",
                    "name": "amount",
                    "type": "uint256"
                }
            ],
            "name": "LogDepositMade",
            "type": "event"
        },
        {
            "anonymous": false,
            "inputs": [
                {
                    "indexed": false,
                    "internalType": "address",
                    "name": "accountAddress",
                    "type": "address"
                }
            ],
            "name": "LogEnrolled",
            "type": "event"
        },
        {
            "anonymous": false,
            "inputs": [
                {
                    "indexed": false,
                    "internalType": "address",
                    "name": "accountAddress",
                    "type": "address"
                },
                {
                    "indexed": false,
                    "internalType": "uint256",
                    "name": "withdrawAmount",
                    "type": "uint256"
                },
                {
                    "indexed": false,
                    "internalType": "uint256",
                    "name": "newBalance",
                    "type": "uint256"
                }
            ],
            "name": "LogWithdrawal",
            "type": "event"
        },
        {
            "stateMutability": "payable",
            "type": "fallback"
        },
        {
            "inputs": [],
            "name": "deposit",
            "outputs": [
                {
                    "internalType": "uint256",
                    "name": "",
                    "type": "uint256"
                }
            ],
            "stateMutability": "payable",
            "type": "function"
        },
        {
            "inputs": [],
            "name": "enroll",
            "outputs": [
                {
                    "internalType": "bool",
                    "name": "",
                    "type": "bool"
                }
            ],
            "stateMutability": "nonpayable",
            "type": "function"
        },
        {
            "inputs": [
                {
                    "internalType": "address",
                    "name": "",
                    "type": "address"
                }
            ],
            "name": "enrolled",
            "outputs": [
                {
                    "internalType": "bool",
                    "name": "",
                    "type": "bool"
                }
            ],
            "stateMutability": "view",
            "type": "function"
        },
        {
            "inputs": [],
            "name": "getBalance",
            "outputs": [
                {
                    "internalType": "uint256",
                    "name": "",
                    "type": "uint256"
                }
            ],
            "stateMutability": "view",
            "type": "function"
        },
        {
            "inputs": [
                {
                    "internalType": "uint256",
                    "name": "withdrawAmount",
                    "type": "uint256"
                }
            ],
            "name": "withdraw",
            "outputs": [
                {
                    "internalType": "uint256",
                    "name": "",
                    "type": "uint256"
                }
            ],
            "stateMutability": "nonpayable",
            "type": "function"
        }
    ],
    "bytecode": "6080604052600280546001600160a01b0319163317905534801561002257600080fd5b50610325806100326000396000f3fe60806040526004361061004a5760003560e01c806310eb0e0e1461004f57806312065fe0146100945780632e1a7d4d146100c0578063d0e30db0146100e0578063e65f2a7e146100e8575b600080fd5b34801561005b57600080fd5b5061007f61006a366004610280565b60016020526000908152604090205460ff1681565b60405190151581526020015b60405180910390f35b3480156100a057600080fd5b50336000908152602081905260409020545b60405190815260200161008b565b3480156100cc57600080fd5b506100b26100db3660046102b0565b6100fd565b6100b261017a565b3480156100f457600080fd5b5061007f610219565b3360009081526020819052604081205482111561011957600080fd5b336000818152602081815260409182902054825193845290830185905282820152517ff9226daf630542048a23086c6af599511aac100ec8f532793cc9697d061bed7e9181900360600190a150503360009081526020819052604090205490565b33600090815260016020819052604082205460ff1615151461019b57600080fd5b33600090815260208190526040812080543492906101ba9084906102c9565b90915550503360008181526020818152604091829020548251938452908301527fa8126f7572bb1fdeae5b5aa9ec126438b91f658a07873f009d041ae690f3a193910160405180910390a1503360009081526020819052604090205490565b336000818152600160208181526040808420805460ff1916909317909255905192835290917f990c442e6adb818b8fa7db3cf1023decd07f7b66e5306928c7ed527d974192bb910160405180910390a1503360009081526001602052604090205460ff1690565b60006020828403121561029257600080fd5b81356001600160a01b03811681146102a957600080fd5b9392505050565b6000602082840312156102c257600080fd5b5035919050565b600082198211156102ea57634e487b7160e01b600052601160045260246000fd5b50019056fea26469706673582212203134493d0e04df13de57decee820781a104bab32ee29ef1420a4275b3c011c6b64736f6c63430008090033",
    "sourcePath": "/home/isaid/proyectos/simple-bank-exercise-jacobo1407b/contracts/SimpleBank.sol",
    "compiler": {
        "name": "solc",
        "version": "0.8.9+commit.e5eed63a"
    },
    "functionHashes": {
        "deposit()": "d0e30db0",
        "enroll()": "e65f2a7e",
        "enrolled(address)": "10eb0e0e",
        "getBalance()": "12065fe0",
        "withdraw(uint256)": "2e1a7d4d"
    },
    "gasEstimates": {
        "creation": {
            "codeDepositCost": "161000",
            "executionCost": "24443",
            "totalCost": "185443"
        },
        "external": {
            "": "168",
            "deposit()": "32473",
            "enroll()": "27805",
            "enrolled(address)": "2463",
            "getBalance()": "2352",
            "withdraw(uint256)": "8454"
        }
    }
}